{
  "contractName": "Certificate",
  "abi": [
    {
      "constant": true,
      "inputs": [
        {
          "name": "",
          "type": "bytes32"
        }
      ],
      "name": "records",
      "outputs": [
        {
          "name": "",
          "type": "address"
        }
      ],
      "payable": false,
      "stateMutability": "view",
      "type": "function",
      "signature": "0x01e64725"
    },
    {
      "constant": true,
      "inputs": [
        {
          "name": "",
          "type": "bytes32"
        }
      ],
      "name": "certificates",
      "outputs": [
        {
          "name": "timeOfIssue",
          "type": "uint256"
        },
        {
          "name": "issuer",
          "type": "address"
        },
        {
          "name": "recipient",
          "type": "string"
        },
        {
          "name": "cin",
          "type": "string"
        },
        {
          "name": "organisation",
          "type": "string"
        },
        {
          "name": "diplome",
          "type": "string"
        },
        {
          "name": "specialite",
          "type": "string"
        },
        {
          "name": "grade",
          "type": "string"
        }
      ],
      "payable": false,
      "stateMutability": "view",
      "type": "function",
      "signature": "0x742f0688"
    },
    {
      "constant": true,
      "inputs": [],
      "name": "owner",
      "outputs": [
        {
          "name": "",
          "type": "address"
        }
      ],
      "payable": false,
      "stateMutability": "view",
      "type": "function",
      "signature": "0x8da5cb5b"
    },
    {
      "inputs": [],
      "payable": false,
      "stateMutability": "nonpayable",
      "type": "constructor",
      "signature": "constructor"
    },
    {
      "anonymous": false,
      "inputs": [
        {
          "indexed": true,
          "name": "record",
          "type": "bytes32"
        },
        {
          "indexed": false,
          "name": "timestamp",
          "type": "uint256"
        },
        {
          "indexed": false,
          "name": "returnValue",
          "type": "bool"
        }
      ],
      "name": "CertificateIssued",
      "type": "event",
      "signature": "0xe2f856eb4bdb96dc07c8658ff6dc2faa0cba255b51e9af05a293fc28d74bd8ac"
    },
    {
      "constant": false,
      "inputs": [
        {
          "name": "recipient",
          "type": "string"
        },
        {
          "name": "cin",
          "type": "string"
        },
        {
          "name": "organisation",
          "type": "string"
        },
        {
          "name": "diplome",
          "type": "string"
        },
        {
          "name": "specialite",
          "type": "string"
        },
        {
          "name": "grade",
          "type": "string"
        }
      ],
      "name": "issueCertificate",
      "outputs": [],
      "payable": false,
      "stateMutability": "nonpayable",
      "type": "function",
      "signature": "0x94973c97"
    },
    {
      "constant": true,
      "inputs": [],
      "name": "owningAuthority",
      "outputs": [
        {
          "name": "",
          "type": "address"
        }
      ],
      "payable": false,
      "stateMutability": "view",
      "type": "function",
      "signature": "0x1b853182"
    },
    {
      "constant": true,
      "inputs": [
        {
          "name": "certificate",
          "type": "bytes32"
        }
      ],
      "name": "verifyCertificateHash",
      "outputs": [
        {
          "name": "",
          "type": "bool"
        }
      ],
      "payable": false,
      "stateMutability": "view",
      "type": "function",
      "signature": "0x9744250e"
    },
    {
      "constant": true,
      "inputs": [
        {
          "name": "certificate",
          "type": "bytes32"
        }
      ],
      "name": "viewCertificate",
      "outputs": [
        {
          "name": "recipient",
          "type": "string"
        },
        {
          "name": "cin",
          "type": "string"
        },
        {
          "name": "organisation",
          "type": "string"
        },
        {
          "name": "diplome",
          "type": "string"
        },
        {
          "name": "specialite",
          "type": "string"
        },
        {
          "name": "grade",
          "type": "string"
        }
      ],
      "payable": false,
      "stateMutability": "view",
      "type": "function",
      "signature": "0x40f126ba"
    }
  ],
  "bytecode": "0x608060405234801561001057600080fd5b50336000806101000a81548173ffffffffffffffffffffffffffffffffffffffff021916908373ffffffffffffffffffffffffffffffffffffffff16021790555061187d806100606000396000f3fe608060405260043610610083576000357c0100000000000000000000000000000000000000000000000000000000900463ffffffff16806301e64725146100885780631b8531821461010357806340f126ba1461015a578063742f06881461042a5780638da5cb5b1461073457806394973c971461078b5780639744250e146109ba575b600080fd5b34801561009457600080fd5b506100c1600480360360208110156100ab57600080fd5b8101908080359060200190929190505050610a0d565b604051808273ffffffffffffffffffffffffffffffffffffffff1673ffffffffffffffffffffffffffffffffffffffff16815260200191505060405180910390f35b34801561010f57600080fd5b50610118610a40565b604051808273ffffffffffffffffffffffffffffffffffffffff1673ffffffffffffffffffffffffffffffffffffffff16815260200191505060405180910390f35b34801561016657600080fd5b506101936004803603602081101561017d57600080fd5b8101908080359060200190929190505050610a69565b6040518080602001806020018060200180602001806020018060200187810387528d818151815260200191508051906020019080838360005b838110156101e75780820151818401526020810190506101cc565b50505050905090810190601f1680156102145780820380516001836020036101000a031916815260200191505b5087810386528c818151815260200191508051906020019080838360005b8381101561024d578082015181840152602081019050610232565b50505050905090810190601f16801561027a5780820380516001836020036101000a031916815260200191505b5087810385528b818151815260200191508051906020019080838360005b838110156102b3578082015181840152602081019050610298565b50505050905090810190601f1680156102e05780820380516001836020036101000a031916815260200191505b5087810384528a818151815260200191508051906020019080838360005b838110156103195780820151818401526020810190506102fe565b50505050905090810190601f1680156103465780820380516001836020036101000a031916815260200191505b50878103835289818151815260200191508051906020019080838360005b8381101561037f578082015181840152602081019050610364565b50505050905090810190601f1680156103ac5780820380516001836020036101000a031916815260200191505b50878103825288818151815260200191508051906020019080838360005b838110156103e55780820151818401526020810190506103ca565b50505050905090810190601f1680156104125780820380516001836020036101000a031916815260200191505b509c5050505050505050505050505060405180910390f35b34801561043657600080fd5b506104636004803603602081101561044d57600080fd5b8101908080359060200190929190505050610eb3565b604051808981526020018873ffffffffffffffffffffffffffffffffffffffff1673ffffffffffffffffffffffffffffffffffffffff16815260200180602001806020018060200180602001806020018060200187810387528d818151815260200191508051906020019080838360005b838110156104ef5780820151818401526020810190506104d4565b50505050905090810190601f16801561051c5780820380516001836020036101000a031916815260200191505b5087810386528c818151815260200191508051906020019080838360005b8381101561055557808201518184015260208101905061053a565b50505050905090810190601f1680156105825780820380516001836020036101000a031916815260200191505b5087810385528b818151815260200191508051906020019080838360005b838110156105bb5780820151818401526020810190506105a0565b50505050905090810190601f1680156105e85780820380516001836020036101000a031916815260200191505b5087810384528a818151815260200191508051906020019080838360005b83811015610621578082015181840152602081019050610606565b50505050905090810190601f16801561064e5780820380516001836020036101000a031916815260200191505b50878103835289818151815260200191508051906020019080838360005b8381101561068757808201518184015260208101905061066c565b50505050905090810190601f1680156106b45780820380516001836020036101000a031916815260200191505b50878103825288818151815260200191508051906020019080838360005b838110156106ed5780820151818401526020810190506106d2565b50505050905090810190601f16801561071a5780820380516001836020036101000a031916815260200191505b509e50505050505050505050505050505060405180910390f35b34801561074057600080fd5b506107496112ab565b604051808273ffffffffffffffffffffffffffffffffffffffff1673ffffffffffffffffffffffffffffffffffffffff16815260200191505060405180910390f35b34801561079757600080fd5b506109b8600480360360c08110156107ae57600080fd5b81019080803590602001906401000000008111156107cb57600080fd5b8201836020820111156107dd57600080fd5b803590602001918460018302840111640100000000831117156107ff57600080fd5b90919293919293908035906020019064010000000081111561082057600080fd5b82018360208201111561083257600080fd5b8035906020019184600183028401116401000000008311171561085457600080fd5b90919293919293908035906020019064010000000081111561087557600080fd5b82018360208201111561088757600080fd5b803590602001918460018302840111640100000000831117156108a957600080fd5b9091929391929390803590602001906401000000008111156108ca57600080fd5b8201836020820111156108dc57600080fd5b803590602001918460018302840111640100000000831117156108fe57600080fd5b90919293919293908035906020019064010000000081111561091f57600080fd5b82018360208201111561093157600080fd5b8035906020019184600183028401116401000000008311171561095357600080fd5b90919293919293908035906020019064010000000081111561097457600080fd5b82018360208201111561098657600080fd5b803590602001918460018302840111640100000000831117156109a857600080fd5b90919293919293905050506112d0565b005b3480156109c657600080fd5b506109f3600480360360208110156109dd57600080fd5b810190808035906020019092919050505061172d565b604051808215151515815260200191505060405180910390f35b60016020528060005260406000206000915054906101000a900473ffffffffffffffffffffffffffffffffffffffff1681565b60008060009054906101000a900473ffffffffffffffffffffffffffffffffffffffff16905090565b6060806060806060806002600088815260200190815260200160002060020160026000898152602001908152602001600020600301600260008a8152602001908152602001600020600401600260008b8152602001908152602001600020600501600260008c8152602001908152602001600020600701600260008d8152602001908152602001600020600601858054600181600116156101000203166002900480601f016020809104026020016040519081016040528092919081815260200182805460018160011615610100020316600290048015610b8b5780601f10610b6057610100808354040283529160200191610b8b565b820191906000526020600020905b815481529060010190602001808311610b6e57829003601f168201915b50505050509550848054600181600116156101000203166002900480601f016020809104026020016040519081016040528092919081815260200182805460018160011615610100020316600290048015610c275780601f10610bfc57610100808354040283529160200191610c27565b820191906000526020600020905b815481529060010190602001808311610c0a57829003601f168201915b50505050509450838054600181600116156101000203166002900480601f016020809104026020016040519081016040528092919081815260200182805460018160011615610100020316600290048015610cc35780601f10610c9857610100808354040283529160200191610cc3565b820191906000526020600020905b815481529060010190602001808311610ca657829003601f168201915b50505050509350828054600181600116156101000203166002900480601f016020809104026020016040519081016040528092919081815260200182805460018160011615610100020316600290048015610d5f5780601f10610d3457610100808354040283529160200191610d5f565b820191906000526020600020905b815481529060010190602001808311610d4257829003601f168201915b50505050509250818054600181600116156101000203166002900480601f016020809104026020016040519081016040528092919081815260200182805460018160011615610100020316600290048015610dfb5780601f10610dd057610100808354040283529160200191610dfb565b820191906000526020600020905b815481529060010190602001808311610dde57829003601f168201915b50505050509150808054600181600116156101000203166002900480601f016020809104026020016040519081016040528092919081815260200182805460018160011615610100020316600290048015610e975780601f10610e6c57610100808354040283529160200191610e97565b820191906000526020600020905b815481529060010190602001808311610e7a57829003601f168201915b5050505050905095509550955095509550955091939550919395565b60026020528060005260406000206000915090508060000154908060010160009054906101000a900473ffffffffffffffffffffffffffffffffffffffff1690806002018054600181600116156101000203166002900480601f016020809104026020016040519081016040528092919081815260200182805460018160011615610100020316600290048015610f8b5780601f10610f6057610100808354040283529160200191610f8b565b820191906000526020600020905b815481529060010190602001808311610f6e57829003601f168201915b505050505090806003018054600181600116156101000203166002900480601f0160208091040260200160405190810160405280929190818152602001828054600181600116156101000203166002900480156110295780601f10610ffe57610100808354040283529160200191611029565b820191906000526020600020905b81548152906001019060200180831161100c57829003601f168201915b505050505090806004018054600181600116156101000203166002900480601f0160208091040260200160405190810160405280929190818152602001828054600181600116156101000203166002900480156110c75780601f1061109c576101008083540402835291602001916110c7565b820191906000526020600020905b8154815290600101906020018083116110aa57829003601f168201915b505050505090806005018054600181600116156101000203166002900480601f0160208091040260200160405190810160405280929190818152602001828054600181600116156101000203166002900480156111655780601f1061113a57610100808354040283529160200191611165565b820191906000526020600020905b81548152906001019060200180831161114857829003601f168201915b505050505090806006018054600181600116156101000203166002900480601f0160208091040260200160405190810160405280929190818152602001828054600181600116156101000203166002900480156112035780601f106111d857610100808354040283529160200191611203565b820191906000526020600020905b8154815290600101906020018083116111e657829003601f168201915b505050505090806007018054600181600116156101000203166002900480601f0160208091040260200160405190810160405280929190818152602001828054600181600116156101000203166002900480156112a15780601f10611276576101008083540402835291602001916112a1565b820191906000526020600020905b81548152906001019060200180831161128457829003601f168201915b5050505050905088565b6000809054906101000a900473ffffffffffffffffffffffffffffffffffffffff1681565b60008c8c8c8c8c8c8c8c8c8c8c8c604051602001808d8d80828437808301925050508b8b8082843780830192505050898980828437808301925050508787808284378083019250505085858082843780830192505050838380828437808301925050509c5050505050505050505050505060405160208183030381529060405280519060200120905060405160200180600001905060405160208183030381529060405280519060200120811415151561138957600080fd5b336001600083815260200190815260200160002060006101000a81548173ffffffffffffffffffffffffffffffffffffffff021916908373ffffffffffffffffffffffffffffffffffffffff160217905550610100604051908101604052804281526020013373ffffffffffffffffffffffffffffffffffffffff1681526020018e8e8080601f016020809104026020016040519081016040528093929190818152602001838380828437600081840152601f19601f8201169050808301925050505050505081526020018c8c8080601f016020809104026020016040519081016040528093929190818152602001838380828437600081840152601f19601f8201169050808301925050505050505081526020018a8a8080601f016020809104026020016040519081016040528093929190818152602001838380828437600081840152601f19601f82011690508083019250505050505050815260200188888080601f016020809104026020016040519081016040528093929190818152602001838380828437600081840152601f19601f82011690508083019250505050505050815260200186868080601f016020809104026020016040519081016040528093929190818152602001838380828437600081840152601f19601f82011690508083019250505050505050815260200184848080601f016020809104026020016040519081016040528093929190818152602001838380828437600081840152601f19601f82011690508083019250505050505050815250600260008381526020019081526020016000206000820151816000015560208201518160010160006101000a81548173ffffffffffffffffffffffffffffffffffffffff021916908373ffffffffffffffffffffffffffffffffffffffff16021790555060408201518160020190805190602001906116449291906117ac565b5060608201518160030190805190602001906116619291906117ac565b50608082015181600401908051906020019061167e9291906117ac565b5060a082015181600501908051906020019061169b9291906117ac565b5060c08201518160060190805190602001906116b89291906117ac565b5060e08201518160070190805190602001906116d59291906117ac565b50905050807fe2f856eb4bdb96dc07c8658ff6dc2faa0cba255b51e9af05a293fc28d74bd8ac42600160405180838152602001821515151581526020019250505060405180910390a250505050505050505050505050565b60008073ffffffffffffffffffffffffffffffffffffffff166002600084815260200190815260200160002060010160009054906101000a900473ffffffffffffffffffffffffffffffffffffffff1673ffffffffffffffffffffffffffffffffffffffff1614156117a257600090506117a7565b600190505b919050565b828054600181600116156101000203166002900490600052602060002090601f016020900481019282601f106117ed57805160ff191683800117855561181b565b8280016001018555821561181b579182015b8281111561181a5782518255916020019190600101906117ff565b5b509050611828919061182c565b5090565b61184e91905b8082111561184a576000816000905550600101611832565b5090565b9056fea165627a7a72305820677efbba536b56111c3ecf232f1fc27db780802071c59abe3b1c894ce9df3abf0029",
  "source": "pragma solidity ^0.5.0;\n\n\ncontract Certificate {\n  address public owner;\n  mapping (bytes32 => address) public records;\n\n  //struct certificates\n    struct certificateObject \n    {\n        //uint id;\n        uint timeOfIssue;\n        address issuer;\n        string recipient;\n        string cin;\n        string organisation;\n        string diplome; \n        string specialite;\n        string grade;\n    }\n\n  mapping (bytes32 => certificateObject) public certificates; \n  event CertificateIssued(bytes32 indexed record, uint256 timestamp, bool returnValue);\n\nconstructor() public {\n    owner = msg.sender;\n  } \n\n// deliver a certtificate and put it in blockchain\n  function issueCertificate(string calldata recipient,string calldata cin,string calldata organisation,string calldata diplome,string calldata specialite,string calldata grade) external {\n    bytes32 certificate = keccak256(abi.encodePacked(recipient,cin,organisation,diplome,specialite,grade));    \n    require(certificate != keccak256(abi.encodePacked(\"\")));\n    records[certificate] = msg.sender;\n\n    certificates[certificate] =certificateObject(now,msg.sender,recipient,cin,organisation,diplome,specialite,grade);\n    emit CertificateIssued(certificate, block.timestamp, true);\n  }\n\n  function owningAuthority() external view returns (address) {   \n    return owner;\n  }\n\n\nfunction verifyCertificateHash(bytes32 certificate) external view returns (bool) {\n      if (certificates[certificate].issuer == address(0)) {\n        return false;\n      }\n        return true;\n}\n\nfunction viewCertificate(bytes32 certificate) view public returns(string memory recipient,string memory cin,string memory organisation,string memory diplome, string memory specialite,string memory grade){\n        return (certificates[certificate].recipient,certificates[certificate].cin,certificates[certificate].organisation,certificates[certificate].diplome,certificates[certificate].grade,certificates[certificate].specialite);\n    }  \n}",
  "sourcePath": "C:/Users/pc hp/Desktop/Projets/BlockChain/Cryptoficat/contracts/Certificate.sol",
  "compiler": {
    "name": "solc",
    "version": "0.5.0+commit.1d4f565a.Emscripten.clang"
  },
  "schemaVersion": "3.0.1",
  "updatedAt": "2022-06-08T12:08:34.102Z",
  "devdoc": {
    "methods": {}
  },
  "userdoc": {
    "methods": {}
  }
}